:100000000C9403050C9420050C9420050C942005F9
:100010000C9420050C9420050C9420050C942005CC
:100020000C9420050C9420050C9420050C94560784
:100030000C9420050C9420050C9420050C942005AC
:100040000C9420050C9420050C9420050C9420059C
:100050000C9420050C9420050C9420050C9420058C
:100060000C9420050C9420050C9420050C9420057C
:100070000C9420050C9420050C9420050C9420056C
:100080000C9420050C9420050C9420050C9420055C
:100090000C9420050C9420050C9420050C9420054C
:1000A0000C9420050C9420050C9420050C9420053C
:1000B0000C9420050000000000000000000000007B
:1000C00000000010101010101010001010000000A0
:1000D0002424242400000000000000000000000987
:1000E00009127F1224FF244848000000103C5050A1
:1000F0005030181414147810000000619294946821
:100100001629294986000000001824242830D189A6
:100110008EC67F00000010101010000000000000CC
:1001200000000000060C1010202020202010100CD1
:100130000600603008080404040404080830600065
:1001400000101066283424000000000000000000A9
:100150000000101010FE1010100000000000000041
:100160000000000000181808100000000000000047
:100170007E00000000000000000000000000000001
:1001800000181800000002040404080818101020C9
:1001900020204000001824424242424242241800DB
:1001A0000000000878080808080808087F00000018
:1001B000007804040408081020407C000000003C83
:1001C0000202021C020202023C00000000040C14A5
:1001D0001424447E040404000000003E2020203843
:1001E000060202023C000000001C2040405C62420B
:1001F00042221C000000007E02040408101010209F
:1002000020000000003C42424438244242423C006C
:1002100000000038444242463A020204380000001E
:10022000000000001818000000181800000000006E
:100230000000181800000018180810000000000046
:10024000020C1060100C0200000000000000007E94
:1002500000007E00000000000000000040300806A2
:10026000083040000000007C42020408101000101A
:1002700010000000003C624E92929296DB443C00DB
:10028000000000000818142424427E42810000006F
:1002900000007C424244784442427C00000000005E
:1002A0003E408080808080403E0000000000F88456
:1002B000828282828284F800000000007E404040FA
:1002C0007C4040407E00000000007E4040407C407A
:1002D00040404000000000003E408080808E82420E
:1002E0003E0000000000424242427E424242420042
:1002F000000000007C101010101010107C00000096
:1003000000003C040404040404047800000000001D
:1003100042444850605048444200000000004040C1
:100320004040404040407E0000000000C6C6C6AAD3
:10033000AAAA928282000000000042626252524ADF
:100340004A46420000000000384482828282824491
:100350003800000000007C424242467840404000A5
:100360000000000038448282828282443806030002
:1003700000007844444478484C44420000000000A7
:100380003E404060180602027C0000000000FE10A3
:1003900010101010101010000000000042424242E5
:1003A000424242423C000000000081424244242874
:1003B00028101000000000008181939A5A5A666646
:1003C00024000000000081422418181824428100F3
:1003D0000000000081424428181010101000000096
:1003E0000000FE02040810204080FE0000001E10E5
:1003F000101010101010101010101E00402020209F
:1004000010101808080404040200780808080808F6
:10041000080808080808780000080818141424229E
:10042000420000000000000000000000000000008A
:1004300000FF0000080400000000000000000000B1
:100440000000000000003C02023E42423F0000006B
:10045000404040405C62424242625C00000000005A
:1004600000001E20404040201E0000000202020248
:100470003A46424242463A000000000000003C2258
:10048000427E40403E0000000E1010107E10101002
:10049000101010000000000000003E46424242469C
:1004A0003A02023C404040405C62424242424200CA
:1004B0000000181800007808080808080800000064
:1004C0000C0C00003C0404040404040404784040C0
:1004D00040404448506058444200000078080808F2
:1004E0000808080808080800000000000000B6DA44
:1004F0009292929292000000000000005C624242E0
:1005000042424200000000000000384482828244DF
:1005100038000000000000005C62424242625C4021
:100520004040000000003A46424242463A0202027F
:10053000000000005C6440404040400000000000BB
:1005400000003C40601804047800000000002020F7
:10055000FE20202020201E0000000000000042425B
:10056000424242463A0000000000000081424244FC
:100570002828100000000000000081895A5A6624D3
:100580002400000000000000422418181824420033
:10059000000000000000814242242418181030E0BE
:1005A00000000000FE0408102040FE0000000000D3
:1005B00000000000000030787830300030006C6CB3
:1005C0006C00000000006C6CFE6CFE6C6C00307CFB
:1005D000C0780CF8300000C6CC183066C600386C05
:1005E0003876DCCC76006060C00000000000183077
:1005F00060606030180060301818183060000066C5
:100600003CFF3C660000003030FC30300000000051
:10061000000000703060000000FC000000000000DE
:10062000000000303000060C183060C0800078CC2C
:10063000DCFCECCC780030F030303030FC0078CC92
:100640000C3860CCFC0078CC0C380CCC78001C3C0E
:100650006CCCFE0C0C00FCC0F80C0CCC78003860A4
:10066000C0F8CCCC7800FCCC0C183060600078CCA2
:10067000CC78CCCC780078CCCC7C0C187000000006
:100680003030003030000000303000703060183002
:1006900060C0603018000000FC00FC00000060300A
:1006A000180C1830600078CC0C18300030007CC674
:1006B000DEDEDEC078003078CCCCFCCCCC00FC6632
:1006C000667C6666FC003C66C0C0C0663C00FC6C94
:1006D0006666666CFC00FE6268786862FE00FE6218
:1006E00068786860F0003C66C0C0CE663E00CCCC46
:1006F000CCFCCCCCCC0078303030303078001E0CC4
:100700000C0CCCCC7800E6666C786C66E600F06089
:1007100060606266FE00C6EEFED6C6C6C600C6E6CD
:10072000F6DECEC6C600386CC6C6C66C3800FC669F
:10073000667C6060F00078CCCCCCDC781C00FC6679
:10074000667C786CE60078CCE0381CCC7800FCB491
:10075000303030307800CCCCCCCCCCCCFC00CCCC05
:10076000CCCCCC783000C6C6C6D6FEEEC600C6C617
:100770006C386CC6C600CCCCCC7830307800FECC5F
:10078000983062C6FE007860606060607800C0608B
:1007900030180C060200781818181818780010384D
:1007A0006CC60000000000000000000000FF3030B8
:1007B0001800000000000000780C7CCC7600E0609F
:1007C0007C666666BC00000078CCC0CC78001C0C4F
:1007D0000C7CCCCC7600000078CCFCC07800386C67
:1007E00060F06060F000000076CCCC7C0CF8E0603B
:1007F0006C766666E60030007030303078001800A5
:1008000078181818D870E060666C786CE600703064
:100810003030303078000000ECFED6C6C600000054
:10082000F8CCCCCCCC00000078CCCCCC780000004C
:10083000DC66667C60F0000076CCCC7C0C1E000090
:10084000D86C6C60F00000007CC0780CF8001030B0
:100850007C30303418000000CCCCCCCC76000000CA
:10086000CCCCCC7830000000C6C6D6FE6C000000B0
:10087000C66C386CC6000000CCCCCC7C0CF80000F8
:10088000FC983064FC000000000000C000E000F0B4
:1008900000FC0000000004061212FEEC00F8FC064A
:1008A0000222E6E4000000F0909C04F404F4F40456
:1008B000F4F40404FC000000000300030003000340
:1008C0000003000000000103020203010000010315
:1008D0000202030100000000000302020202020201
:1008E00002020202030000000C06FFFF0000000CE1
:1008F00006FFFF000000181800FEFF0101FFFE00C8
:100900001C1F0B09F9F100F848487800F830C000C6
:10091000C030F80000000000C02023232040000069
:100920008083830080E083038001030282038100CF
:10093000810302828301E003008080800300810242
:10094000010083000000000008111112120C000DBC
:1009500012120A1F001F10000F1010081F001F01A5
:1009600000000F1010091F000D12120A1F0001468F
:10097000380601000000F80404048800FC1010E0B0
:1009800000F400F01010E000905050F000FC18E06F
:1009900000E018FCE01010E000FC1010E000F40093
:1009A000FC00E050506000010101C00001000001A6
:1009B000000100010000010081414141800100006F
:1009C0008140404180018140404181010080C1005F
:1009D000814040418101001820201F001A25251563
:1009E0003E003F0101013E001D2222221D000000A9
:1009F0002030282423001F2020201F0001003F005A
:100A00001D2222221D0011241FBECFEFD8E0DEBF21
:100A1000CDBF11E0A0E0B1E0EAEBF0E102C005904B
:100A20000D92A235B107D9F721E0A2E5B1E001C0EE
:100A30001D92AF36B207E1F70E94A5070C945B0840
:100A40000C94000081E58CBD08958EBD0DB407FEA9
:100A5000FDCF08952A9A28988EBD0DB407FEFDCFCC
:100A6000289A08952A9828988EBD0DB407FEFDCFC8
:100A7000289A0895806B2A9828988EBD0DB407FE99
:100A8000FDCF289A0895885D982F92959F70906168
:100A90002A9828989EBD0DB407FEFDCF289A8F7026
:100AA0002A9828988EBD0DB407FEFDCF289A089588
:100AB0002A98289891E89EBD0DB407FEFDCF289A8C
:100AC0002A9828988EBD0DB407FEFDCF289A089568
:100AD0009C01205D3F4F90E052E148E02A98289821
:100AE000892F806B8EBD0DB407FEFDCF289A2A9802
:100AF00028985EBD0DB407FEFDCF289A2A98289845
:100B00004EBD0DB407FEFDCF289AF901F0978491F0
:100B10002A9A28988EBD0DB407FEFDCF289A3196EB
:100B2000E217F307A1F79F5F9F01205D3F4F9830C9
:100B3000A9F6089590E032E128E02A982898892FB4
:100B4000806B8EBD0DB407FEFDCF289A2A98289899
:100B50003EBD0DB407FEFDCF289A2A9828982EBDD9
:100B60000DB407FEFDCF289A80E32A9A28981EBC70
:100B70000DB407FEFDCF289A8150B9F79F5F9830DA
:100B8000E1F6089597E0941B906B2A9828989EBDF3
:100B90000DB407FEFDCF289A689F802D1124885D33
:100BA000982F92959F7090612A9828989EBD0DB4B9
:100BB00007FEFDCF289A8F702A9828988EBD0DB415
:100BC00007FEFDCF289A0895299A80E29EE4FC0151
:100BD0003197F1F72998E0E4FCE93197F1F7299A88
:100BE0000197F1F72A9828982A9828988EEA8EBDBE
:100BF0000DB407FEFDCF289A2A98289885ED8EBD62
:100C00000DB407FEFDCF289A2A98289880E88EBD5B
:100C10000DB407FEFDCF289A2A98289888EA8EBD41
:100C20000DB407FEFDCF289A2A9828988FE38EBD31
:100C30000DB407FEFDCF289A2A98289883ED8EBD23
:100C40000DB407FEFDCF289A2A9828981EBC0DB433
:100C500007FEFDCF289A2A9828988DE88EBD0DB4FE
:100C600007FEFDCF289A2A98289884E18EBD0DB4FE
:100C700007FEFDCF289A2A98289886EA8EBD0DB4E3
:100C800007FEFDCF289A2A98289884EA8EBD0DB4D5
:100C900007FEFDCF289A2A98289881EA8EBD0DB4C8
:100CA00007FEFDCF289A2A98289888EC8EBD0DB4AF
:100CB00007FEFDCF289A2A9828988AED8EBD0DB49C
:100CC00007FEFDCF289A2A98289882E18EBD0DB4A0
:100CD00007FEFDCF289A2A98289881E88EBD0DB48A
:100CE00007FEFDCF289A2A98289881E08EBD0DB482
:100CF00007FEFDCF289A2A98289889ED8EBD0DB45D
:100D000007FEFDCF289A2A98289881EF8EBD0DB452
:100D100007FEFDCF289A2A9828988BED8EBD0DB43A
:100D200007FEFDCF289A2A98289880E48EBD0DB43E
:100D300007FEFDCF289A2A9828988FEA8EBD0DB419
:100D400007FEFDCF289A289A2A9A08956052883083
:100D5000D9F08E30B1F0F0E0E0E08823C1F0869F5A
:100D6000E00DF11D112490E024912A9A28982EBDBF
:100D70000DB407FEFDCF289A9F5F31969817A0F318
:100D80000895E4EBF0E0EBCFEEEAF5E0E8CF08956C
:100D9000CF92DF92EF92FF920F931F93CF93DF9347
:100DA000E82EE90188819AE1E916B9F1882309F46E
:100DB00074C0E69E602D1124685D862F82958F7029
:100DC000C82E6894C4F86F70F62E822F895FD82ED3
:100DD000D41A9D2D9C1B906B2A9828989EBD0DB40B
:100DE00007FEFDCF289A2A982898CEBC0DB407FE9E
:100DF000FDCF289A2A982898FEBC0DB407FEFDCF97
:100E0000289AFE0161918F018E2D0E94A60699817C
:100E1000992309F442C0E801DCCF882309F43DC0DE
:100E20006E9D902D1124985D592F52955F705061E1
:100E30009F70842F880F47E0481B6AE12A98289802
:100E4000842F806B8EBD0DB407FEFDCF289A2A98A3
:100E500028985EBD0DB407FEFDCF289A2A982898E1
:100E60009EBD0DB407FEFDCF289AE991E052E69FA2
:100E7000F00111249F01265E3F4F84912A9A289801
:100E80008EBD0DB407FEFDCF289A31962E173F0771
:100E9000A1F7425088818111D1CFDF91CF911F916D
:100EA0000F91FF90EF90DF90CF9008951F921FB6A3
:100EB0001F9211248F9380916D018F5F80936D013C
:100EC00080916901882329F0809169018150809384
:100ED000690180916D018A3039F410926D01809121
:100EE0006C018F5F80936C0180916C018A3081F07E
:100EF00080916B018C3339F410926B0180916A01FF
:100F00008F5F80936A018F911F901FBE1F9018956D
:100F100010926C0180916B018F5F80936B018091C7
:100F200068018F5F8093680180916801843001F7C8
:100F30001092680180916701811104C081E0809363
:100F40006701D6CF10926701D3CF84B18F6284B985
:100F500085B18F6285B93D9A459A459853985B9AB9
:100F600081E58CBD81EE94E09093890080938800A8
:100F70008091810088608093810080916F00826001
:100F800080936F00809181008360809381007894CA
:100F900010926D0110926C0110926B0110926A0117
:100FA0001092690183E0809368011092670180913B
:100FB0006701809366010E94E4050E949A0580EB18
:100FC0000E94320582E10E94320588E00E943205CB
:100FD00010926E0180E0C8E2882331F18130E1F7A0
:100FE0004B99FECF809169018111FACF82E0809305
:100FF0006E01C093690120E031E040E060E08EE0E6
:101000000E94C80629E031E040E061E08EE00E94E5
:10101000C80622E131E040E062E08EE00E94C806AE
:1010200080916E018111DACF4B9904C080916901E2
:10103000882331F180916701882389F02BE131E029
:1010400040E060E08EE00E94C80624E231E040E02B
:1010500061E08EE00E94C8062DE231E0DCCF26E39D
:1010600031E040E060E08EE00E94C8062FE331E00E
:1010700040E061E08EE00E94C80628E431E0CBCF7A
:1010800081E080936E01C093690120E031E040E08F
:1010900060E08EE00E94C80629E031E040E061E0B7
:1010A0008EE00E94C80622E131E040E062E08EE07E
:0A10B0000E94C806BFCFF894FFCFDE
:1010BA0020427574746F6E2000202020746F2020E7
:1010CA00200020205A45524F202000496620666F92
:1010DA00756E6400706C65617365202000636F6EC5
:1010EA007461637420007267726F656E6572004086
:1010FA006D61696C626F78002E6F72672020202004
:02110A000000E3
:00000001FF
