:100000000C9443040C9460040C9460040C946004FD
:100010000C9460040C9460040C9460040C946004D0
:100020000C9460040C9460040C9460040C946204BE
:100030000C9460040C9460040C9460040C946004B0
:100040000C9460040C9460040C9460040C946004A0
:100050000C9460040C9460040C9460040C94600490
:100060000C9460040C9460040C9460040C94600480
:100070000C9460040C9460040C9460040C94600470
:100080000C9460040C9460040C9460040C94600460
:100090000C9460040C9460040C9460040C94600450
:1000A0000C9460040C9460040C9460040C94600440
:1000B0000C9460040000000000000000000000003C
:1000C00000000010101010101010001010000000A0
:1000D0002424242400000000000000000000000987
:1000E00009127F1224FF244848000000103C5050A1
:1000F0005030181414147810000000619294946821
:100100001629294986000000001824242830D189A6
:100110008EC67F00000010101010000000000000CC
:1001200000000000060C1010202020202010100CD1
:100130000600603008080404040404080830600065
:100140000010281000000000000000000000000067
:100150000000101010FE1010100000000000000041
:100160000000000000181808100000000000000047
:100170007E00000000000000000000000000000001
:1001800000181800000002040404080818101020C9
:1001900020204000001824424242424242241800DB
:1001A0000000000878080808080808087F00000018
:1001B000007804040408081020407C000000003C83
:1001C0000202021C020202023C00000000040C14A5
:1001D0001424447E040404000000003E2020203843
:1001E000060202023C000000001C2040405C62420B
:1001F00042221C000000007E02040408101010209F
:1002000020000000003C42424438244242423C006C
:1002100000000038444242463A020204380000001E
:10022000000000001818000000181800000000006E
:100230000000181800000018180810000000000046
:10024000020C1060100C0200000000000000007E94
:1002500000007E00000000000000000040300806A2
:10026000083040000000007C42020408101000101A
:1002700010000000003C624E92929296DB443C00DB
:10028000000000000818142424427E42810000006F
:1002900000007C424244784442427C00000000005E
:1002A0003E408080808080403E0000000000F88456
:1002B000828282828284F800000000007E404040FA
:1002C0007C4040407E00000000007E4040407C407A
:1002D00040404000000000003E408080808E82420E
:1002E0003E0000000000424242427E424242420042
:1002F000000000007C101010101010107C00000096
:1003000000003C040404040404047800000000001D
:1003100042444850605048444200000000004040C1
:100320004040404040407E0000000000C6C6C6AAD3
:10033000AAAA928282000000000042626252524ADF
:100340004A46420000000000384482828282824491
:100350003800000000007C424242467840404000A5
:100360000000000038448282828282443806030002
:1003700000007844444478484C44420000000000A7
:100380003E404060180602027C0000000000FE10A3
:1003900010101010101010000000000042424242E5
:1003A000424242423C000000000081424244242874
:1003B00028101000000000008181939A5A5A666646
:1003C00024000000000081422418181824428100F3
:1003D0000000000081424428181010101000000096
:1003E0000000FE02040810204080FE0000001E10E5
:1003F000101010101010101010101E00402020209F
:1004000010101808080404040200780808080808F6
:10041000080808080808780000080818141424229E
:10042000420000000000000000000000000000008A
:1004300000FF0000080400000000000000000000B1
:100440000000000000003C02023E42423F0000006B
:10045000404040405C62424242625C00000000005A
:1004600000001E20404040201E0000000202020248
:100470003A46424242463A000000000000003C2258
:10048000427E40403E0000000E1010107E10101002
:10049000101010000000000000003E46424242469C
:1004A0003A02023C404040405C62424242424200CA
:1004B0000000181800007808080808080800000064
:1004C0000C0C00003C0404040404040404784040C0
:1004D00040404448506058444200000078080808F2
:1004E0000808080808080800000000000000B6DA44
:1004F0009292929292000000000000005C624242E0
:1005000042424200000000000000384482828244DF
:1005100038000000000000005C62424242625C4021
:100520004040000000003A46424242463A0202027F
:10053000000000005C6440404040400000000000BB
:1005400000003C40601804047800000000002020F7
:10055000FE20202020201E0000000000000042425B
:10056000424242463A0000000000000081424244FC
:100570002828100000000000000081895A5A6624D3
:100580002400000000000000422418181824420033
:10059000000000000000814242242418181030E0BE
:1005A00000000000FE0408102040FE0000000000D3
:1005B00000000000000030787830300030006C6CB3
:1005C0006C00000000006C6CFE6CFE6C6C00307CFB
:1005D000C0780CF8300000C6CC183066C600386C05
:1005E0003876DCCC76006060C00000000000183077
:1005F0006060603018006030181818306000386C87
:100600006C3800000000003030FC3030000000008A
:10061000000000703060000000FC000000000000DE
:10062000000000303000060C183060C0800078CC2C
:10063000DCFCECCC780030F030303030FC0078CC92
:100640000C3860CCFC0078CC0C380CCC78001C3C0E
:100650006CCCFE0C0C00FCC0F80C0CCC78003860A4
:10066000C0F8CCCC7800FCCC0C183060600078CCA2
:10067000CC78CCCC780078CCCC7C0C187000000006
:100680003030003030000000303000703060183002
:1006900060C0603018000000FC00FC00000060300A
:1006A000180C1830600078CC0C18300030007CC674
:1006B000DEDEDEC078003078CCCCFCCCCC00FC6632
:1006C000667C6666FC003C66C0C0C0663C00FC6C94
:1006D0006666666CFC00FE6268786862FE00FE6218
:1006E00068786860F0003C66C0C0CE663E00CCCC46
:1006F000CCFCCCCCCC0078303030303078001E0CC4
:100700000C0CCCCC7800E6666C786C66E600F06089
:1007100060606266FE00C6EEFED6C6C6C600C6E6CD
:10072000F6DECEC6C600386CC6C6C66C3800FC669F
:10073000667C6060F00078CCCCCCDC781C00FC6679
:10074000667C786CE60078CCE0381CCC7800FCB491
:10075000303030307800CCCCCCCCCCCCFC00CCCC05
:10076000CCCCCC783000C6C6C6D6FEEEC600C6C617
:100770006C386CC6C600CCCCCC7830307800FECC5F
:10078000983062C6FE007860606060607800C0608B
:1007900030180C060200781818181818780010384D
:1007A0006CC60000000000000000000000FF3030B8
:1007B0001800000000000000780C7CCC7600E0609F
:1007C0007C666666BC00000078CCC0CC78001C0C4F
:1007D0000C7CCCCC7600000078CCFCC07800386C67
:1007E00060F06060F000000076CCCC7C0CF8E0603B
:1007F0006C766666E60030007030303078001800A5
:1008000078181818D870E060666C786CE600703064
:100810003030303078000000ECFED6C6C600000054
:10082000F8CCCCCCCC00000078CCCCCC780000004C
:10083000DC66667C60F0000076CCCC7C0C1E000090
:10084000D86C6C60F00000007CC0780CF8001030B0
:100850007C30303418000000CCCCCCCC76000000CA
:10086000CCCCCC7830000000C6C6D6FE6C000000B0
:10087000C66C386CC6000000CCCCCC7C0CF80000F8
:10088000FC983064FC0011241FBECFEFD8E0DEBF1F
:10089000CDBF11E0A0E0B1E0E4E4FCE102C00590CE
:1008A0000D92AC35B107D9F721E0ACE5B1E001C05C
:1008B0001D92AF37B207E1F70E9469080C94200E31
:1008C0000C9400001F921FB61F9211248F938091E9
:1008D00077018F5F8093770180917301882329F0DE
:1008E00080917301815080937301809177018A30E8
:1008F00039F410927701809176018F5F80937601B1
:10090000809176018A3081F0809175018C3339F4C1
:1009100010927501809174018F5F809374018F91A3
:100920001F901FBE1F90189510927601809175013F
:100930008F5F80937501809172018F5F8093720148
:1009400080917201843001F71092720180917101DF
:10095000811104C081E080937101D6CF10927101A2
:10096000D3CFCF93DF9300D000D0CDB7DEB724E64E
:1009700030E040E050E00E942D0BC9010F900F9035
:100980000F900F90DF91CF910895CF93C62F24E65B
:1009900030E040E050E00E942D0B8C2F94E6299F20
:1009A00080191124CF9108951092640082E0809301
:1009B000B9008CE08093B80084E08093BC0080E0B4
:1009C000089584EA8093BC008091BC0087FFFCCF2F
:1009D00080E0089584E98093BC0080E008958093CE
:1009E000BB0084E88093BC008091BC0087FFFCCFF3
:1009F00080E0089584EC8093BC008091BC0087FF68
:100A0000FCCF8091BB00089584E88093BC00809166
:100A1000BC0087FFFCCF8091BB0008958091B90096
:100A2000887F08950E94E1040E940E05883011F02D
:100A300081E0089580E80E94EF040E940E0588314D
:100A400011F082E008958EEF0E94EF040E940E05DF
:100A5000883241F40E94EA0480E395E70197F1F7B8
:100A600080E0089583E00895FF920F931F93CF9342
:100A7000DF9300D000D00F92CDB7DEB789830E94FC
:100A8000E1040E940E058D83883069F08BE090E0D0
:100A90000F900F900F900F900F90DF91CF911F91BB
:100AA0000F91FF90089580E80E94EF040E940E05C8
:100AB000883169F52981222369F12130A1F00E9452
:100AC0000E058832B9F43D9896B19F7D96B9992369
:100AD000D9F33D9A0E94E1040E940E05803169F02D
:100AE0008CE290E0D5CF83EF0E94EF040E940E05C8
:100AF000883249F381E290E0CBCF81E80E94EF0495
:100B00000E940E05803451F087E390E0C1CF86E16A
:100B100090E0BECF83EE0E94EF04D1CF0E94FA0492
:100B2000182F0E940E05803509F066C00E94FA0455
:100B3000082F0E940E05803509F061C00E9404054F
:100B4000F82E0E94EA04C8018C7F3981332309F40E
:100B500070C0313009F06AC09C0150E040E0298348
:100B60003A834B835C83CA01B9010E94320AE62FA3
:100B700020E030E04AEF5AE3E9837A838B839C8359
:100B800069817A818B819C810E94C00AE62F682F3F
:100B9000892F20E030E040EC50E4E9837A836B83D6
:100BA0008C8369817A818B819C810E948F09E62FD9
:100BB00020E030E048EC52E4E9837A838B839C8325
:100BC00069817A818B819C810E94C00A69837A83C2
:100BD0008B839C8369817A818B819C810E94FC0933
:100BE000CB0128E031E303C0110F215059F017FF6A
:100BF000FBCF110F1327F9CF82E490E049CF8DE4AA
:100C000090E046CF102721E306C0110F3D813150FF
:100C10003D83332329F017FFF8CF110F1227F6CFAA
:100C2000F11609F435CF81E090E032CF90E080E01A
:100C3000D8CF9C0150E040E029833A834B835C830A
:100C4000CA01B9010E94320AE62F22E538EB4FE2D1
:100C50005BE3E9837A838B839C8369817A818B81CF
:100C60009C810E94C00AE62F682F892F26E636E66F
:100C70004BE352E492CF6623C9F0FC019C012F5F45
:100C80003F4F6150260F311D60E091E3819168274D
:100C900088E003C0660F815031F067FFFBCF660F1D
:100CA00069278150D1F7E217F30781F781E04613F6
:100CB000089580E00895299A80E29EE4FC0131972E
:100CC000F1F72998E0E4FCE93197F1F7299A0197C7
:100CD000F1F72A9828982A9828988EEA0E946408A2
:100CE000289A2A98289885ED0E946408289A2A98BC
:100CF000289880E80E946408289A2A98289888EA08
:100D00000E946408289A2A9828988FE30E94640811
:100D1000289A2A98289883ED0E946408289A2A988D
:100D2000289880E00E946408289A2A9828988DE8DC
:100D30000E946408289A2A98289884E10E946408EE
:100D4000289A2A98289886EA0E946408289A2A985D
:100D5000289884EA0E946408289A2A98289881EAA8
:100D60000E946408289A2A98289888EC0E946408AF
:100D7000289A2A9828988AED0E946408289A2A9826
:100D8000289882E10E946408289A2A98289881E885
:100D90000E946408289A2A98289881E00E94640892
:100DA000289A2A98289889ED0E946408289A2A98F7
:100DB000289881EF0E946408289A2A9828988BED39
:100DC0000E946408289A2A98289880E40E9464085F
:100DD000289A2A9828988FEA0E946408289A289AC4
:100DE0002A9A08952A9A28980E946408289A0895B1
:100DF0002A9828980E946408289A08952A98289882
:100E0000806B0E946408289A0895CF93C8E2C80FA7
:100E10002A9828988C2F82958F7080610E94640890
:100E2000289A2A9828988C2F8F700E946408289AF4
:100E3000CF910895CF93C82F2A98289881E80E94CF
:100E40006408289A2A9828988C2F0E946408289A67
:100E5000CF910895FF920F931F93CF93DF938C014F
:100E6000005D1F4FF12C2A9828988F2D806B0E94CF
:100E70006408289A2A98289882E10E946408289A8F
:100E80002A98289888E00E946408289AE801E09748
:100E9000FE0184912A9A28980E946408289A219633
:100EA000C017D107A9F7F3948E01005D1F4FF8E03A
:100EB000FF12D9CFDF91CF911F910F91FF9008952D
:100EC000CF93DF93D0E02A9828988D2F806B0E94D3
:100ED0006408289A2A98289882E10E946408289A2F
:100EE0002A98289888E00E946408289AC0E32A9AE1
:100EF000289880E00E946408289AC150C1F7DF5FFB
:100F0000D83009F7DF91CF910895CF93DF93D82F91
:100F1000C62F2A98289887E0841B806B0E9464085B
:100F2000289ACD9FC02D1124C85D2A9828988C2F0F
:100F300082958F7080610E946408289A2A98289868
:100F40008C2F8F700E946408289ADF91CF910895AA
:100F50000F931F93CF93DF93082F60528830F1F0E7
:100F60008E30C9F0D0E0C0E0882381F0069FC00D2C
:100F7000D11D112410E0FE0184912A9A28980E9424
:100F80006408289A1F5F21961017A8F3DF91CF916C
:100F90001F910F910895C4EBD0E0E8CFCEEAD5E0E1
:100FA000E5CFAF92BF92CF92DF92EF92FF920F9375
:100FB0001F93CF93DF93E82E8901F9018081FAE135
:100FC000EF16D1F1882369F1E69E602D1124685D4A
:100FD000862F82958F70D82E6894D4F86F70F62E75
:100FE000E901122F195F141B2A982898812F8C1B56
:100FF000806B0E946408289A2A9828988D2D0E9458
:101000006408289A2A9828988F2D0E946408289AA4
:10101000FE01219660818E2D0E94A8079881911172
:10102000E3CFDF91CF911F910F91FF90EF90DF9071
:10103000CF90BF90AF900895882399F36E9D602D57
:101040001124685D862F82958F70B82E6894B4F84D
:101050006F70D62E440F97E0C92EC41A8AE1A82ECD
:101060002A9828988C2D806B0E946408289A2A98C8
:1010700028988B2D0E946408289A2A9828988D2DEC
:101080000E946408289AF801C0810F5F1F4FC05268
:10109000CA9DE00111247E018AE1E80EF11CFE01E7
:1010A00084912A9A28980E946408289A2196EC161E
:1010B000FD06A9F7CA94CA94F80180818111D0CFA6
:1010C000B0CF81E58CBD08958EBD0DB407FEFDCF78
:1010D000089500D000D0CDB7DEB784B18F6284B957
:1010E00085B18F6285B93D9A459A45988AB18660E7
:1010F0008AB9599A5A9853985B9A0E94610881EE6E
:1011000094E09093890080938800809181008860AA
:101110008093810080916F00826080936F00809146
:1011200081008360809381007894109277011092FF
:10113000760110927501109274011092730183E090
:1011400080937201109271018091710180937001FE
:101150000E945B060E94600780E00E94FE0680E01D
:101160000E9405070E94D4040E94120582E0809329
:10117000780192E0792E28E2C22E34E6832E912C5B
:10118000A12CB12C44E6D42E51E5E52E51E0F52EEC
:1011900008E511E0813051F1823009F442C081113B
:1011A000F9CF4B9905C080917301882309F49CC045
:1011B00080917101882309F486C02BE131E040E081
:1011C00060E08EE00E94D10724E231E040E061E07F
:1011D0008EE00E94D1072DE231E040E062E08EE037
:1011E0000E94D107809178018130B1F64B99FECFF2
:1011F000809173018111FACF70927801C0927301CE
:1012000020E031E040E060E08EE00E94D10729E07C
:1012100031E040E061E08EE00E94D10722E131E060
:10122000DCCF80E00E94340590937E0180937D01A5
:10123000092E000CAA0BBB0B89839A83AB83BC835A
:10124000BC01CD01A50194010E942D0B8981D29E84
:10125000801911241F928F933F932F93FF92EF9247
:10126000ACE5B1E0BF93AF930E944F0B2CE531E0AA
:1012700040E060E08EE00E94D10780917C018F9376
:1012800080917B018F931F930F938CE591E09F9347
:101290008F930E944F0B2CE531E040E061E08EE03F
:1012A0000E94D10780917B0190917C0101969093DF
:1012B0007C0180937B01809178010FB6F894DEBFAA
:1012C0000FBECDBF67CF26E331E040E060E08EE0A7
:1012D0000E94D1072FE331E040E061E08EE00E9400
:1012E000D10728E431E079CF81E080937801C09282
:1012F000730120E031E040E060E08EE00E94D10721
:1013000029E031E040E061E08EE00E94D10722E177
:1013100031E040E062E08EE00E94D10749CF5058B2
:10132000BB27AA270E94A7090C94860A0E94780A64
:1013300038F00E947F0A20F039F49F3F19F426F418
:101340000C94750A0EF4E095E7FB0C946F0AE92FF4
:101350000E94970A58F3BA17620773078407950724
:1013600020F079F4A6F50C94B90A0EF4E0950B2E52
:10137000BA2FA02D0B01B90190010C01CA01A001E7
:101380001124FF27591B99F0593F50F4503E68F142
:101390001A16F040A22F232F342F4427585FF3CF83
:1013A000469537952795A795F0405395C9F77EF454
:1013B0001F16BA0B620B730B840BBAF09150A1F09D
:1013C000FF0FBB1F661F771F881FC2F70EC0BA0F23
:1013D000621F731F841F48F4879577956795B795AB
:1013E000F7959E3F08F0B0CF9395880F08F09927A6
:1013F000EE0F9795879508950E94030A6894B1119E
:101400000C94BA0A08950E949F0A88F09F5798F09A
:10141000B92F9927B751B0F0E1F0660F771F881FF9
:10142000991F1AF0BA95C9F714C0B13091F00E9413
:10143000B90AB1E008950C94B90A672F782F88276C
:10144000B85F39F0B93FCCF3869577956795B3953A
:10145000D9F73EF490958095709561957F4F8F4FA9
:101460009F4F0895E89409C097FB3EF490958095AE
:10147000709561957F4F8F4F9F4F9923A9F0F92F5A
:1014800096E9BB279395F695879577956795B795D8
:10149000F111F8CFFAF4BB0F11F460FF1BC06F5FBE
:1014A0007F4F8F4F9F4F16C0882311F096E911C0D0
:1014B000772321F09EE8872F762F05C0662371F0F1
:1014C00096E8862F70E060E02AF09A95660F771F05
:1014D000881FDAF7880F9695879597F9089597F9F9
:1014E0009F6780E870E060E008959FEF80EC0895CA
:1014F00000240A94161617061806090608950024F3
:101500000A9412161306140605060895092E03946C
:10151000000C11F4882352F0BB0F40F4BF2B11F4E0
:1015200060FF04C06F5F7F4F8F4F9F4F089557FD3F
:101530009058440F551F59F05F3F71F04795880F41
:1015400097FB991F61F09F3F79F0879508951216D8
:1015500013061406551FF2CF4695F1DF08C0161684
:1015600017061806991FF1CF869571056105089435
:101570000895E894BB2766277727CB0197F908954C
:101580000E94D30A0C94860A0E94780A38F00E94BE
:101590007F0A20F0952311F00C946F0A0C94750AC1
:1015A00011240C94BA0A0E94970A70F3959FC1F314
:1015B000950F50E0551F629FF001729FBB27F00D01
:1015C000B11D639FAA27F00DB11DAA1F649F662756
:1015D000B00DA11D661F829F2227B00DA11D621FA5
:1015E000739FB00DA11D621F839FA00D611D221F5F
:1015F000749F3327A00D611D231F849F600D211D43
:10160000822F762F6A2F11249F5750409AF0F1F0C5
:1016100088234AF0EE0FFF1FBB1F661F771F881F2E
:1016200091505040A9F79E3F510580F00C946F0AED
:101630000C94BA0A5F3FE4F3983ED4F3869577950D
:101640006795B795F795E7959F5FC1F7FE2B880FD4
:10165000911D9695879597F90895A1E21A2EAA1BD8
:10166000BB1BFD010DC0AA1FBB1FEE1FFF1FA21752
:10167000B307E407F50720F0A21BB30BE40BF50B4F
:10168000661F771F881F991F1A9469F760957095D8
:10169000809590959B01AC01BD01CF010895AEE00E
:1016A000B0E0E5E5FBE00C94F70D0D891E8986E0BE
:1016B0008C831A8309838FEF9FE79E838D83AE010E
:1016C000475E5F4F6F89788DCE0101960E94720B45
:1016D0002F813885020F131FF80110822E96E4E047
:1016E0000C94130EAFE0B0E0E8E7FBE00C94E90DDA
:1016F0007C013B018A01DC0117961C921E92169711
:1017000013968C9181FFBEC19AE0292EFE0131967D
:101710004F01D70113969C91F30193FD859193FF9F
:1017200081913F01882309F444C1853239F493FD46
:10173000859193FF81913F01853229F4B70190E0B3
:101740000E945B0DE6CFB12C412C512CBFE1B515A9
:1017500038F08B3209F188F4803201F1833221F1C3
:1017600057FC3AC020ED280F2A3040F556FE1FC026
:10177000B29C200D1124B22E06C08D3291F0803320
:1017800079F7689450F8F30193FD859193FF819167
:101790003F018111DBCF20C0689451F8689452F862
:1017A000F2CF689453F8EFCF689454F8ECCF429C92
:1017B000200D1124422E689455F8E5CF8E3229F47D
:1017C00056FCF7C0689456F8DECF8C3619F468944E
:1017D00057F8D9CF8836B9F2982F9F7D955493301A
:1017E000C0F08336A1F18337C1F1833509F05BC0C6
:1017F000D801CD90DD908D016B2D70E056FC02C0BC
:101800006FEF7FEFC6010E94450D5C01689457F8A9
:101810000AC00C5F1F4FEFE3E983AA24A394B12C05
:101820006401E89457F853FC04C04A141B0409F0FF
:1018300018F5342CA114B10431F5332009F469CF23
:10184000B70180E290E00E945B0D3A94F6CFD80198
:101850008C9189830E5F1F4FE0CFF801C190D1902A
:101860008F016B2D70E056FC02C06FEF7FEFC60159
:101870000E94500D5C01D5CFB70180E290E00E943C
:101880005B0D4A94D2CFF60157FC859157FE8191AA
:101890006F01B70190E00E945B0D31103A94B1E006
:1018A000AB1AB108C7CF843619F0893609F071C078
:1018B000F80157FE67C061917191819191918F01FB
:1018C000E52DEF76DE2E97FF09C0909580957095F7
:1018D00061957F4F8F4F9F4F6894D7F82AE030E093
:1018E000A4010E948B0DC82EC818AC2C5D2CD6FE0E
:1018F0000CC0E89450F8CB1440F4D4FE05C0D2FCE0
:1019000003C05D2D5E7E552EAB2C54FE93C0FE01B0
:10191000EC0DF11D8081803309F085C0652D697E55
:10192000562E752D7870372E53FC93C050FE8DC007
:10193000BC2CA41410F4B40CBA1854FE90C0B70117
:1019400080E390E00E945B0D52FE07C088E751FCE7
:1019500088E590E0B7010E945B0DCB1408F48BC0C2
:10196000CA94D12C8FEFC81AD80AC80CD91CD6013A
:101970008E916D01B70190E00E945B0D8C149D0467
:10198000B1F75BCF61917191072E000C880B990B19
:1019900096CFD52CE894D4F82AE0853729F1F52D97
:1019A000F97FDF2E8037A1F058F48835A1F08F360B
:1019B000D1F0F701868197812F96E2E10C94050E14
:1019C0008837B9F7D4FE02C06894D2F820E10CC081
:1019D0006894D4F8F7CF54FE03C02F2F2660D22E80
:1019E00020E132E002C028E030E0F801D7FE15C067
:1019F00041915191619171914C875D876E877F878D
:101A00008F01A4016C857D858E859F850E948B0D3D
:101A1000C82EC818E894D7F868CF81919191AC018D
:101A200070E060E0E9CF52FC02C0A3947ACFA394A7
:101A3000A39477CF852D867809F473CFF6CFB701BD
:101A400080E290E00E945B0DA394A414C0F3312CBB
:101A500074CF342C3A18A41408F46FCFF8CF852D26
:101A6000867809F47ACF8BE251FE80E257FC8DE252
:101A7000B70190E070CFB70180E390E00E945B0D6A
:101A8000BA946BCF8FEF9FEF97CFFC010590615019
:101A900070400110D8F7809590958E0F9F1F089584
:101AA000FC016150704001900110D8F7809590952D
:101AB0008E0F9F1F08950F931F93CF93DF93182FBF
:101AC000092FEB018B8181FD09C01FEF0FEF812FE3
:101AD000902FDF91CF911F910F91089582FF14C035
:101AE0002E813F818C819D81281739073CF4E88144
:101AF000F981CF0101969983888310838E819F811C
:101B000001969F838E83E3CFE885F985812F099520
:101B1000892BA1F3DACFFA01AA27283051F120311D
:101B200081F1E8946F936E7F6E5F7F4F8F4F9F4F71
:101B3000AF4FB1E03ED0B4E03CD0670F781F891FB3
:101B40009A1FA11D680F791F8A1F911DA11D6A0F81
:101B5000711D811D911DA11D20D009F468943F9134
:101B60002AE0269F11243019305D3193DEF6CF0133
:101B70000895462F4770405D4193B3E00FD0C9F7F9
:101B8000F6CF462F4F70405D4A3318F0495D31FD66
:101B90004052419302D0A9F7EACFB4E0A6959795B9
:101BA000879577956795BA95C9F70097610571058F
:101BB00008959B01AC010A2E0694579547953795D9
:101BC0002795BA95C9F7620F731F841F951FA01D33
:101BD00008952F923F924F925F926F927F928F92D1
:101BE0009F92AF92BF92CF92DF92EF92FF920F93AC
:101BF0001F93CF93DF93CDB7DEB7CA1BDB0B0FB6B6
:101C0000F894DEBF0FBECDBF09942A883988488872
:101C10005F846E847D848C849B84AA84B984C88408
:101C2000DF80EE80FD800C811B81AA81B981CE0FFF
:101C3000D11D0FB6F894DEBF0FBECDBFED010895E4
:041C4000F894FFCF46
:101C440020427574746F6E2000202020746F202051
:101C5400200020205A45524F202000496620666FFC
:101C6400756E6400706C65617365202000636F6E2F
:101C74007461637420007267726F656E65720040F0
:101C84006D61696C626F78002E6F7267202020206E
:0C1C94000025642E25642A002564000051
:00000001FF
